:100000000C943E000C9448000C9448000C9448005A
:100010000C9448000C9448000C9448000C94480040
:100020000C9448000C9448000C9448000C94480030
:100030000C9448000C9448000C9448000C94480020
:100040000C9448000C9448000C9448000C94480010
:100050000C9448000C9448000C9448000C94480000
:100060000C9448000C9448000C9448000C944800F0
:100070000C9448000C9448000C94480011241FBEB6
:10008000CFEFD8E0DEBFCDBF0E9459000C94A30093
:100090000C9400004A9B0BC08FE19EE40197F1F79E
:1000A00000C0000089B182FB882780F9089580E0B4
:1000B00008958FEF81B91AB8D0E010E0C0E002E0F7
:1000C0000E944A00882321F0D111FACF81E001C0BB
:1000D00080E0C230F1F028F4CC23A1F0C130B1F0BF
:1000E00020C0C430E1F0C0F0C530D9F402B92FEF20
:1000F00089E698E1215080409040E1F700C000007F
:10010000C0E01EC012B8811112C00BC0811111C015
:1001100008C0811110C005C081110FC002C081113B
:100120000EC0D1E01C1301C0D0E0C12FC9CFC1E087
:1001300007C0C2E005C0C3E003C0C4E001C0C5E021
:0A0140001C2FD1E0BDCFF894FFCFD3
:00000001FF
